{
  "_format": "hh-sol-artifact-1",
  "contractName": "Shop",
  "sourceName": "contracts/Shop.sol",
  "abi": [
    {
      "inputs": [],
      "stateMutability": "nonpayable",
      "type": "constructor"
    },
    {
      "anonymous": false,
      "inputs": [
        {
          "indexed": true,
          "internalType": "address",
          "name": "clientAddress",
          "type": "address"
        },
        {
          "indexed": false,
          "internalType": "uint256",
          "name": "price",
          "type": "uint256"
        }
      ],
      "name": "Buy",
      "type": "event"
    },
    {
      "anonymous": false,
      "inputs": [
        {
          "indexed": true,
          "internalType": "string",
          "name": "code",
          "type": "string"
        },
        {
          "indexed": false,
          "internalType": "uint256",
          "name": "amount",
          "type": "uint256"
        }
      ],
      "name": "NewItem",
      "type": "event"
    },
    {
      "inputs": [
        {
          "components": [
            {
              "internalType": "string",
              "name": "code",
              "type": "string"
            },
            {
              "internalType": "uint256",
              "name": "amount",
              "type": "uint256"
            }
          ],
          "internalType": "struct Shop.Request[]",
          "name": "_requests",
          "type": "tuple[]"
        }
      ],
      "name": "buy",
      "outputs": [],
      "stateMutability": "payable",
      "type": "function"
    },
    {
      "inputs": [
        {
          "internalType": "string",
          "name": "_name",
          "type": "string"
        },
        {
          "internalType": "string",
          "name": "_symbol",
          "type": "string"
        },
        {
          "internalType": "uint256",
          "name": "_amount",
          "type": "uint256"
        },
        {
          "internalType": "uint256",
          "name": "_price",
          "type": "uint256"
        }
      ],
      "name": "createNewItem",
      "outputs": [],
      "stateMutability": "nonpayable",
      "type": "function"
    },
    {
      "inputs": [
        {
          "internalType": "string",
          "name": "_code",
          "type": "string"
        }
      ],
      "name": "getItem",
      "outputs": [
        {
          "internalType": "contract Item",
          "name": "",
          "type": "address"
        }
      ],
      "stateMutability": "view",
      "type": "function"
    },
    {
      "inputs": [
        {
          "internalType": "string",
          "name": "_code",
          "type": "string"
        }
      ],
      "name": "getItemPrice",
      "outputs": [
        {
          "internalType": "uint256",
          "name": "",
          "type": "uint256"
        }
      ],
      "stateMutability": "view",
      "type": "function"
    },
    {
      "inputs": [],
      "name": "withdraw",
      "outputs": [],
      "stateMutability": "nonpayable",
      "type": "function"
    }
  ],
  "bytecode": "0x608060405234801561001057600080fd5b50336000806101000a81548173ffffffffffffffffffffffffffffffffffffffff021916908373ffffffffffffffffffffffffffffffffffffffff160217905550613180806100606000396000f3fe608060405260043610620000505760003560e01c80630b390ff114620000555780632e9ad37e146200008357806335f68fcb14620000c75780633ccfd60b14620000e7578063b6010fcd1462000101575b600080fd5b3480156200006257600080fd5b506200008160048036038101906200007b919062000dc3565b62000145565b005b3480156200009057600080fd5b50620000af6004803603810190620000a9919062000d7e565b62000292565b604051620000be919062001110565b60405180910390f35b620000e56004803603810190620000df919062000ce1565b6200035d565b005b348015620000f457600080fd5b50620000ff62000888565b005b3480156200010e57600080fd5b506200012d600480360381019062000127919062000d7e565b6200094b565b6040516200013c919062001002565b60405180910390f35b60008054906101000a900473ffffffffffffffffffffffffffffffffffffffff1673ffffffffffffffffffffffffffffffffffffffff163373ffffffffffffffffffffffffffffffffffffffff16146200019e57600080fd5b83838383604051620001b09062000b07565b620001bf94939291906200105a565b604051809103906000f080158015620001dc573d6000803e3d6000fd5b50600184604051620001ef919062000fbc565b908152602001604051809103902060006101000a81548173ffffffffffffffffffffffffffffffffffffffff021916908373ffffffffffffffffffffffffffffffffffffffff160217905550826040516200024b919062000fbc565b60405180910390207fc6854c7f802b609be11d2c6546a1169545a51a83fd8bb3354c29b1e8a0dfbff38360405162000284919062001110565b60405180910390a250505050565b6000600182604051620002a6919062000fbc565b908152602001604051809103902060009054906101000a900473ffffffffffffffffffffffffffffffffffffffff1673ffffffffffffffffffffffffffffffffffffffff166398d5fdca6040518163ffffffff1660e01b815260040160206040518083038186803b1580156200031b57600080fd5b505afa15801562000330573d6000803e3d6000fd5b505050506040513d601f19601f8201168201806040525081019062000356919062000e61565b9050919050565b6000805b825181101562000575576000838281518110620003a7577f4e487b7100000000000000000000000000000000000000000000000000000000600052603260045260246000fd5b6020026020010151602001516001858481518110620003ef577f4e487b7100000000000000000000000000000000000000000000000000000000600052603260045260246000fd5b6020026020010151600001516040516200040a919062000fbc565b908152602001604051809103902060009054906101000a900473ffffffffffffffffffffffffffffffffffffffff1673ffffffffffffffffffffffffffffffffffffffff166398d5fdca6040518163ffffffff1660e01b815260040160206040518083038186803b1580156200047f57600080fd5b505afa15801562000494573d6000803e3d6000fd5b505050506040513d601f19601f82011682018060405250810190620004ba919062000e61565b620004c6919062001247565b90506200054e6040518060400160405280601181526020017f547279696e6720746f2073656e642025730000000000000000000000000000008152508584815181106200053c577f4e487b7100000000000000000000000000000000000000000000000000000000600052603260045260246000fd5b60200260200101516000015162000995565b80836200055c9190620011ea565b92505080806200056c9062001369565b91505062000361565b5080341015620005bc576040517f08c379a0000000000000000000000000000000000000000000000000000000008152600401620005b390620010ee565b60405180910390fd5b60005b82518110156200083357600a600184838151811062000607577f4e487b7100000000000000000000000000000000000000000000000000000000600052603260045260246000fd5b60200260200101516000015160405162000622919062000fbc565b908152602001604051809103902060009054906101000a900473ffffffffffffffffffffffffffffffffffffffff1673ffffffffffffffffffffffffffffffffffffffff163111620006bf57620006be838281518110620006ac577f4e487b7100000000000000000000000000000000000000000000000000000000600052603260045260246000fd5b60200260200101516000015162000a35565b5b6001838281518110620006fb577f4e487b7100000000000000000000000000000000000000000000000000000000600052603260045260246000fd5b60200260200101516000015160405162000716919062000fbc565b908152602001604051809103902060009054906101000a900473ffffffffffffffffffffffffffffffffffffffff1673ffffffffffffffffffffffffffffffffffffffff1663a9059cbb338584815181106200079b577f4e487b7100000000000000000000000000000000000000000000000000000000600052603260045260246000fd5b6020026020010151602001516040518363ffffffff1660e01b8152600401620007c692919062000fd5565b602060405180830381600087803b158015620007e157600080fd5b505af1158015620007f6573d6000803e3d6000fd5b505050506040513d601f19601f820116820180604052508101906200081c919062000d26565b5080806200082a9062001369565b915050620005bf565b503373ffffffffffffffffffffffffffffffffffffffff167fe3d4187f6ca4248660cc0ac8b8056515bac4a8132be2eca31d6d0cc170722a7e346040516200087c919062001110565b60405180910390a25050565b60008054906101000a900473ffffffffffffffffffffffffffffffffffffffff1673ffffffffffffffffffffffffffffffffffffffff163373ffffffffffffffffffffffffffffffffffffffff1614620008e157600080fd5b60008054906101000a900473ffffffffffffffffffffffffffffffffffffffff1673ffffffffffffffffffffffffffffffffffffffff166108fc479081150290604051600060405180830381858888f1935050505015801562000948573d6000803e3d6000fd5b50565b60006001826040516200095f919062000fbc565b908152602001604051809103902060009054906101000a900473ffffffffffffffffffffffffffffffffffffffff169050919050565b62000a318282604051602401620009ae9291906200101f565b6040516020818303038152906040527f4b5c4277000000000000000000000000000000000000000000000000000000007bffffffffffffffffffffffffffffffffffffffffffffffffffffffff19166020820180517bffffffffffffffffffffffffffffffffffffffffffffffffffffffff838183161783525050505062000ade565b5050565b732fd99142a2ac86b0f15cd3b0ff39df5cce43772d73ffffffffffffffffffffffffffffffffffffffff166310e31dcb826040518263ffffffff1660e01b815260040162000a849190620010b5565b602060405180830381600087803b15801562000a9f57600080fd5b505af115801562000ab4573d6000803e3d6000fd5b505050506040513d601f19601f8201168201806040525081019062000ada919062000d52565b5050565b60008151905060006a636f6e736f6c652e6c6f679050602083016000808483855afa5050505050565b611cd6806200147583390190565b600062000b2c62000b268462001161565b6200112d565b9050808382526020820190508260005b8581101562000b70578135850162000b55888262000c47565b84526020840193506020830192505060018101905062000b3c565b5050509392505050565b600062000b9162000b8b8462001190565b6200112d565b90508281526020810184848401111562000baa57600080fd5b62000bb784828562001324565b509392505050565b600082601f83011262000bd157600080fd5b813562000be384826020860162000b15565b91505092915050565b60008151905062000bfd8162001426565b92915050565b60008151905062000c148162001440565b92915050565b600082601f83011262000c2c57600080fd5b813562000c3e84826020860162000b7a565b91505092915050565b60006040828403121562000c5a57600080fd5b62000c6660406200112d565b9050600082013567ffffffffffffffff81111562000c8357600080fd5b62000c918482850162000c1a565b600083015250602062000ca78482850162000cb3565b60208301525092915050565b60008135905062000cc4816200145a565b92915050565b60008151905062000cdb816200145a565b92915050565b60006020828403121562000cf457600080fd5b600082013567ffffffffffffffff81111562000d0f57600080fd5b62000d1d8482850162000bbf565b91505092915050565b60006020828403121562000d3957600080fd5b600062000d498482850162000bec565b91505092915050565b60006020828403121562000d6557600080fd5b600062000d758482850162000c03565b91505092915050565b60006020828403121562000d9157600080fd5b600082013567ffffffffffffffff81111562000dac57600080fd5b62000dba8482850162000c1a565b91505092915050565b6000806000806080858703121562000dda57600080fd5b600085013567ffffffffffffffff81111562000df557600080fd5b62000e038782880162000c1a565b945050602085013567ffffffffffffffff81111562000e2157600080fd5b62000e2f8782880162000c1a565b935050604062000e428782880162000cb3565b925050606062000e558782880162000cb3565b91505092959194509250565b60006020828403121562000e7457600080fd5b600062000e848482850162000cca565b91505092915050565b62000e9881620012a8565b82525050565b62000ea981620012fc565b82525050565b600062000ebc82620011c3565b62000ec88185620011ce565b935062000eda81856020860162001333565b62000ee58162001415565b840191505092915050565b600062000efd82620011c3565b62000f098185620011df565b935062000f1b81856020860162001333565b80840191505092915050565b600062000f36601783620011ce565b91507f687474703a2f2f746573742f67657444656c69766572790000000000000000006000830152602082019050919050565b600062000f78601d83620011ce565b91507f546865206d73672076616c7565206973206e6f74207375666669656e740000006000830152602082019050919050565b62000fb681620012f2565b82525050565b600062000fca828462000ef0565b915081905092915050565b600060408201905062000fec600083018562000e8d565b62000ffb602083018462000fab565b9392505050565b600060208201905062001019600083018462000e9e565b92915050565b600060408201905081810360008301526200103b818562000eaf565b9050818103602083015262001051818462000eaf565b90509392505050565b6000608082019050818103600083015262001076818762000eaf565b905081810360208301526200108c818662000eaf565b90506200109d604083018562000fab565b620010ac606083018462000fab565b95945050505050565b60006040820190508181036000830152620010d08162000f27565b90508181036020830152620010e6818462000eaf565b905092915050565b60006020820190508181036000830152620011098162000f69565b9050919050565b600060208201905062001127600083018462000fab565b92915050565b6000604051905081810181811067ffffffffffffffff82111715620011575762001156620013e6565b5b8060405250919050565b600067ffffffffffffffff8211156200117f576200117e620013e6565b5b602082029050602081019050919050565b600067ffffffffffffffff821115620011ae57620011ad620013e6565b5b601f19601f8301169050602081019050919050565b600081519050919050565b600082825260208201905092915050565b600081905092915050565b6000620011f782620012f2565b91506200120483620012f2565b9250827fffffffffffffffffffffffffffffffffffffffffffffffffffffffffffffffff038211156200123c576200123b620013b7565b5b828201905092915050565b60006200125482620012f2565b91506200126183620012f2565b9250817fffffffffffffffffffffffffffffffffffffffffffffffffffffffffffffffff04831182151516156200129d576200129c620013b7565b5b828202905092915050565b6000620012b582620012d2565b9050919050565b60008115159050919050565b6000819050919050565b600073ffffffffffffffffffffffffffffffffffffffff82169050919050565b6000819050919050565b6000620013098262001310565b9050919050565b60006200131d82620012d2565b9050919050565b82818337600083830152505050565b60005b838110156200135357808201518184015260208101905062001336565b8381111562001363576000848401525b50505050565b60006200137682620012f2565b91507fffffffffffffffffffffffffffffffffffffffffffffffffffffffffffffffff821415620013ac57620013ab620013b7565b5b600182019050919050565b7f4e487b7100000000000000000000000000000000000000000000000000000000600052601160045260246000fd5b7f4e487b7100000000000000000000000000000000000000000000000000000000600052604160045260246000fd5b6000601f19601f8301169050919050565b6200143181620012bc565b81146200143d57600080fd5b50565b6200144b81620012c8565b81146200145757600080fd5b50565b6200146581620012f2565b81146200147157600080fd5b5056fe60806040523480156200001157600080fd5b5060405162001cd638038062001cd683398181016040528101906200003791906200038d565b838381600390805190602001906200005192919062000254565b5080600490805190602001906200006a92919062000254565b50505033600660006101000a81548173ffffffffffffffffffffffffffffffffffffffff021916908373ffffffffffffffffffffffffffffffffffffffff16021790555080600581905550620000c73383620000d160201b60201c565b50505050620006af565b600073ffffffffffffffffffffffffffffffffffffffff168273ffffffffffffffffffffffffffffffffffffffff16141562000144576040517f08c379a00000000000000000000000000000000000000000000000000000000081526004016200013b906200047e565b60405180910390fd5b62000158600083836200024a60201b60201c565b80600260008282546200016c919062000535565b92505081905550806000808473ffffffffffffffffffffffffffffffffffffffff1673ffffffffffffffffffffffffffffffffffffffff1681526020019081526020016000206000828254620001c3919062000535565b925050819055508173ffffffffffffffffffffffffffffffffffffffff16600073ffffffffffffffffffffffffffffffffffffffff167fddf252ad1be2c89b69c2b068fc378daa952ba7f163c4a11628f55a4df523b3ef836040516200022a9190620004a0565b60405180910390a362000246600083836200024f60201b60201c565b5050565b505050565b505050565b8280546200026290620005d2565b90600052602060002090601f016020900481019282620002865760008555620002d2565b82601f10620002a157805160ff1916838001178555620002d2565b82800160010185558215620002d2579182015b82811115620002d1578251825591602001919060010190620002b4565b5b509050620002e19190620002e5565b5090565b5b8082111562000300576000816000905550600101620002e6565b5090565b60006200031b6200031584620004f1565b620004bd565b9050828152602081018484840111156200033457600080fd5b620003418482856200059c565b509392505050565b600082601f8301126200035b57600080fd5b81516200036d84826020860162000304565b91505092915050565b600081519050620003878162000695565b92915050565b60008060008060808587031215620003a457600080fd5b600085015167ffffffffffffffff811115620003bf57600080fd5b620003cd8782880162000349565b945050602085015167ffffffffffffffff811115620003eb57600080fd5b620003f98782880162000349565b93505060406200040c8782880162000376565b92505060606200041f8782880162000376565b91505092959194509250565b60006200043a601f8362000524565b91507f45524332303a206d696e7420746f20746865207a65726f2061646472657373006000830152602082019050919050565b620004788162000592565b82525050565b6000602082019050818103600083015262000499816200042b565b9050919050565b6000602082019050620004b760008301846200046d565b92915050565b6000604051905081810181811067ffffffffffffffff82111715620004e757620004e662000666565b5b8060405250919050565b600067ffffffffffffffff8211156200050f576200050e62000666565b5b601f19601f8301169050602081019050919050565b600082825260208201905092915050565b6000620005428262000592565b91506200054f8362000592565b9250827fffffffffffffffffffffffffffffffffffffffffffffffffffffffffffffffff0382111562000587576200058662000608565b5b828201905092915050565b6000819050919050565b60005b83811015620005bc5780820151818401526020810190506200059f565b83811115620005cc576000848401525b50505050565b60006002820490506001821680620005eb57607f821691505b6020821081141562000602576200060162000637565b5b50919050565b7f4e487b7100000000000000000000000000000000000000000000000000000000600052601160045260246000fd5b7f4e487b7100000000000000000000000000000000000000000000000000000000600052602260045260246000fd5b7f4e487b7100000000000000000000000000000000000000000000000000000000600052604160045260246000fd5b620006a08162000592565b8114620006ac57600080fd5b50565b61161780620006bf6000396000f3fe608060405234801561001057600080fd5b50600436106100cf5760003560e01c806370a082311161008c578063a457c2d711610066578063a457c2d71461022a578063a9059cbb1461025a578063be6340451461028a578063dd62ed3e146102ba576100cf565b806370a08231146101be57806395d89b41146101ee57806398d5fdca1461020c576100cf565b806306fdde03146100d4578063095ea7b3146100f257806318160ddd1461012257806323b872dd14610140578063313ce56714610170578063395093511461018e575b600080fd5b6100dc6102ea565b6040516100e991906112c0565b60405180910390f35b61010c60048036038101906101079190610ed0565b61037c565b60405161011991906112a5565b60405180910390f35b61012a61039a565b60405161013791906113e2565b60405180910390f35b61015a60048036038101906101559190610e81565b6103a4565b60405161016791906112a5565b60405180910390f35b61017861049c565b60405161018591906113fd565b60405180910390f35b6101a860048036038101906101a39190610ed0565b6104a5565b6040516101b591906112a5565b60405180910390f35b6101d860048036038101906101d39190610e1c565b610551565b6040516101e591906113e2565b60405180910390f35b6101f6610599565b60405161020391906112c0565b60405180910390f35b61021461062b565b60405161022191906113e2565b60405180910390f35b610244600480360381019061023f9190610ed0565b610635565b60405161025191906112a5565b60405180910390f35b610274600480360381019061026f9190610ed0565b610720565b60405161028191906112a5565b60405180910390f35b6102a4600480360381019061029f9190610f0c565b61073e565b6040516102b191906112a5565b60405180910390f35b6102d460048036038101906102cf9190610e45565b6107ad565b6040516102e191906113e2565b60405180910390f35b6060600380546102f990611512565b80601f016020809104026020016040519081016040528092919081815260200182805461032590611512565b80156103725780601f1061034757610100808354040283529160200191610372565b820191906000526020600020905b81548152906001019060200180831161035557829003601f168201915b5050505050905090565b6000610390610389610834565b848461083c565b6001905092915050565b6000600254905090565b60006103b1848484610a07565b6000600160008673ffffffffffffffffffffffffffffffffffffffff1673ffffffffffffffffffffffffffffffffffffffff16815260200190815260200160002060006103fc610834565b73ffffffffffffffffffffffffffffffffffffffff1673ffffffffffffffffffffffffffffffffffffffff1681526020019081526020016000205490508281101561047c576040517f08c379a000000000000000000000000000000000000000000000000000000000815260040161047390611342565b60405180910390fd5b61049085610488610834565b85840361083c565b60019150509392505050565b60006012905090565b60006105476104b2610834565b8484600160006104c0610834565b73ffffffffffffffffffffffffffffffffffffffff1673ffffffffffffffffffffffffffffffffffffffff16815260200190815260200160002060008873ffffffffffffffffffffffffffffffffffffffff1673ffffffffffffffffffffffffffffffffffffffff168152602001908152602001600020546105429190611434565b61083c565b6001905092915050565b60008060008373ffffffffffffffffffffffffffffffffffffffff1673ffffffffffffffffffffffffffffffffffffffff168152602001908152602001600020549050919050565b6060600480546105a890611512565b80601f01602080910402602001604051908101604052809291908181526020018280546105d490611512565b80156106215780601f106105f657610100808354040283529160200191610621565b820191906000526020600020905b81548152906001019060200180831161060457829003601f168201915b5050505050905090565b6000600554905090565b60008060016000610644610834565b73ffffffffffffffffffffffffffffffffffffffff1673ffffffffffffffffffffffffffffffffffffffff16815260200190815260200160002060008573ffffffffffffffffffffffffffffffffffffffff1673ffffffffffffffffffffffffffffffffffffffff16815260200190815260200160002054905082811015610701576040517f08c379a00000000000000000000000000000000000000000000000000000000081526004016106f8906113a2565b60405180910390fd5b61071561070c610834565b8585840361083c565b600191505092915050565b600061073461072d610834565b8484610a07565b6001905092915050565b6000600660009054906101000a900473ffffffffffffffffffffffffffffffffffffffff1673ffffffffffffffffffffffffffffffffffffffff163373ffffffffffffffffffffffffffffffffffffffff161461079a57600080fd5b6107a43383610c88565b60019050919050565b6000600160008473ffffffffffffffffffffffffffffffffffffffff1673ffffffffffffffffffffffffffffffffffffffff16815260200190815260200160002060008373ffffffffffffffffffffffffffffffffffffffff1673ffffffffffffffffffffffffffffffffffffffff16815260200190815260200160002054905092915050565b600033905090565b600073ffffffffffffffffffffffffffffffffffffffff168373ffffffffffffffffffffffffffffffffffffffff1614156108ac576040517f08c379a00000000000000000000000000000000000000000000000000000000081526004016108a390611382565b60405180910390fd5b600073ffffffffffffffffffffffffffffffffffffffff168273ffffffffffffffffffffffffffffffffffffffff16141561091c576040517f08c379a000000000000000000000000000000000000000000000000000000000815260040161091390611302565b60405180910390fd5b80600160008573ffffffffffffffffffffffffffffffffffffffff1673ffffffffffffffffffffffffffffffffffffffff16815260200190815260200160002060008473ffffffffffffffffffffffffffffffffffffffff1673ffffffffffffffffffffffffffffffffffffffff168152602001908152602001600020819055508173ffffffffffffffffffffffffffffffffffffffff168373ffffffffffffffffffffffffffffffffffffffff167f8c5be1e5ebec7d5bd14f71427d1e84f3dd0314c0f7b2291e5b200ac8c7c3b925836040516109fa91906113e2565b60405180910390a3505050565b600073ffffffffffffffffffffffffffffffffffffffff168373ffffffffffffffffffffffffffffffffffffffff161415610a77576040517f08c379a0000000000000000000000000000000000000000000000000000000008152600401610a6e90611362565b60405180910390fd5b600073ffffffffffffffffffffffffffffffffffffffff168273ffffffffffffffffffffffffffffffffffffffff161415610ae7576040517f08c379a0000000000000000000000000000000000000000000000000000000008152600401610ade906112e2565b60405180910390fd5b610af2838383610de8565b60008060008573ffffffffffffffffffffffffffffffffffffffff1673ffffffffffffffffffffffffffffffffffffffff16815260200190815260200160002054905081811015610b78576040517f08c379a0000000000000000000000000000000000000000000000000000000008152600401610b6f90611322565b60405180910390fd5b8181036000808673ffffffffffffffffffffffffffffffffffffffff1673ffffffffffffffffffffffffffffffffffffffff16815260200190815260200160002081905550816000808573ffffffffffffffffffffffffffffffffffffffff1673ffffffffffffffffffffffffffffffffffffffff1681526020019081526020016000206000828254610c0b9190611434565b925050819055508273ffffffffffffffffffffffffffffffffffffffff168473ffffffffffffffffffffffffffffffffffffffff167fddf252ad1be2c89b69c2b068fc378daa952ba7f163c4a11628f55a4df523b3ef84604051610c6f91906113e2565b60405180910390a3610c82848484610ded565b50505050565b600073ffffffffffffffffffffffffffffffffffffffff168273ffffffffffffffffffffffffffffffffffffffff161415610cf8576040517f08c379a0000000000000000000000000000000000000000000000000000000008152600401610cef906113c2565b60405180910390fd5b610d0460008383610de8565b8060026000828254610d169190611434565b92505081905550806000808473ffffffffffffffffffffffffffffffffffffffff1673ffffffffffffffffffffffffffffffffffffffff1681526020019081526020016000206000828254610d6b9190611434565b925050819055508173ffffffffffffffffffffffffffffffffffffffff16600073ffffffffffffffffffffffffffffffffffffffff167fddf252ad1be2c89b69c2b068fc378daa952ba7f163c4a11628f55a4df523b3ef83604051610dd091906113e2565b60405180910390a3610de460008383610ded565b5050565b505050565b505050565b600081359050610e01816115b3565b92915050565b600081359050610e16816115ca565b92915050565b600060208284031215610e2e57600080fd5b6000610e3c84828501610df2565b91505092915050565b60008060408385031215610e5857600080fd5b6000610e6685828601610df2565b9250506020610e7785828601610df2565b9150509250929050565b600080600060608486031215610e9657600080fd5b6000610ea486828701610df2565b9350506020610eb586828701610df2565b9250506040610ec686828701610e07565b9150509250925092565b60008060408385031215610ee357600080fd5b6000610ef185828601610df2565b9250506020610f0285828601610e07565b9150509250929050565b600060208284031215610f1e57600080fd5b6000610f2c84828501610e07565b91505092915050565b610f3e8161149c565b82525050565b6000610f4f82611418565b610f598185611423565b9350610f698185602086016114df565b610f72816115a2565b840191505092915050565b6000610f8a602383611423565b91507f45524332303a207472616e7366657220746f20746865207a65726f206164647260008301527f65737300000000000000000000000000000000000000000000000000000000006020830152604082019050919050565b6000610ff0602283611423565b91507f45524332303a20617070726f766520746f20746865207a65726f20616464726560008301527f73730000000000000000000000000000000000000000000000000000000000006020830152604082019050919050565b6000611056602683611423565b91507f45524332303a207472616e7366657220616d6f756e742065786365656473206260008301527f616c616e636500000000000000000000000000000000000000000000000000006020830152604082019050919050565b60006110bc602883611423565b91507f45524332303a207472616e7366657220616d6f756e742065786365656473206160008301527f6c6c6f77616e63650000000000000000000000000000000000000000000000006020830152604082019050919050565b6000611122602583611423565b91507f45524332303a207472616e736665722066726f6d20746865207a65726f20616460008301527f64726573730000000000000000000000000000000000000000000000000000006020830152604082019050919050565b6000611188602483611423565b91507f45524332303a20617070726f76652066726f6d20746865207a65726f2061646460008301527f72657373000000000000000000000000000000000000000000000000000000006020830152604082019050919050565b60006111ee602583611423565b91507f45524332303a2064656372656173656420616c6c6f77616e63652062656c6f7760008301527f207a65726f0000000000000000000000000000000000000000000000000000006020830152604082019050919050565b6000611254601f83611423565b91507f45524332303a206d696e7420746f20746865207a65726f2061646472657373006000830152602082019050919050565b611290816114c8565b82525050565b61129f816114d2565b82525050565b60006020820190506112ba6000830184610f35565b92915050565b600060208201905081810360008301526112da8184610f44565b905092915050565b600060208201905081810360008301526112fb81610f7d565b9050919050565b6000602082019050818103600083015261131b81610fe3565b9050919050565b6000602082019050818103600083015261133b81611049565b9050919050565b6000602082019050818103600083015261135b816110af565b9050919050565b6000602082019050818103600083015261137b81611115565b9050919050565b6000602082019050818103600083015261139b8161117b565b9050919050565b600060208201905081810360008301526113bb816111e1565b9050919050565b600060208201905081810360008301526113db81611247565b9050919050565b60006020820190506113f76000830184611287565b92915050565b60006020820190506114126000830184611296565b92915050565b600081519050919050565b600082825260208201905092915050565b600061143f826114c8565b915061144a836114c8565b9250827fffffffffffffffffffffffffffffffffffffffffffffffffffffffffffffffff0382111561147f5761147e611544565b5b828201905092915050565b6000611495826114a8565b9050919050565b60008115159050919050565b600073ffffffffffffffffffffffffffffffffffffffff82169050919050565b6000819050919050565b600060ff82169050919050565b60005b838110156114fd5780820151818401526020810190506114e2565b8381111561150c576000848401525b50505050565b6000600282049050600182168061152a57607f821691505b6020821081141561153e5761153d611573565b5b50919050565b7f4e487b7100000000000000000000000000000000000000000000000000000000600052601160045260246000fd5b7f4e487b7100000000000000000000000000000000000000000000000000000000600052602260045260246000fd5b6000601f19601f8301169050919050565b6115bc8161148a565b81146115c757600080fd5b50565b6115d3816114c8565b81146115de57600080fd5b5056fea26469706673582212207270a0ee3478315dfd7556da7ba61973129191e980f573c4a125ab7157660e6c64736f6c63430008000033a264697066735822122029261a97d8df4a6b2cb949f87ecd3dce878054b09796e7b41f4b1d09886af5c764736f6c63430008000033",
  "linkReferences": {},
  "deployedLinkReferences": {}
}