{
  "_format": "hh-sol-artifact-1",
  "contractName": "Delivery",
  "sourceName": "contracts/Delivery.sol",
  "abi": [
    {
      "inputs": [],
      "stateMutability": "nonpayable",
      "type": "constructor"
    },
    {
      "anonymous": false,
      "inputs": [
        {
          "indexed": true,
          "internalType": "bytes32",
          "name": "id",
          "type": "bytes32"
        }
      ],
      "name": "ChainlinkCancelled",
      "type": "event"
    },
    {
      "anonymous": false,
      "inputs": [
        {
          "indexed": true,
          "internalType": "bytes32",
          "name": "id",
          "type": "bytes32"
        }
      ],
      "name": "ChainlinkFulfilled",
      "type": "event"
    },
    {
      "anonymous": false,
      "inputs": [
        {
          "indexed": true,
          "internalType": "bytes32",
          "name": "id",
          "type": "bytes32"
        }
      ],
      "name": "ChainlinkRequested",
      "type": "event"
    },
    {
      "anonymous": false,
      "inputs": [
        {
          "indexed": true,
          "internalType": "address",
          "name": "previousOwner",
          "type": "address"
        },
        {
          "indexed": true,
          "internalType": "address",
          "name": "newOwner",
          "type": "address"
        }
      ],
      "name": "OwnershipTransferred",
      "type": "event"
    },
    {
      "inputs": [
        {
          "internalType": "bytes32",
          "name": "_requestId",
          "type": "bytes32"
        },
        {
          "internalType": "uint256",
          "name": "_payment",
          "type": "uint256"
        },
        {
          "internalType": "bytes4",
          "name": "_callbackFunctionId",
          "type": "bytes4"
        },
        {
          "internalType": "uint256",
          "name": "_expiration",
          "type": "uint256"
        }
      ],
      "name": "cancelRequest",
      "outputs": [],
      "stateMutability": "nonpayable",
      "type": "function"
    },
    {
      "inputs": [
        {
          "internalType": "string",
          "name": "_url",
          "type": "string"
        },
        {
          "internalType": "string",
          "name": "_code",
          "type": "string"
        }
      ],
      "name": "createRequestTo",
      "outputs": [
        {
          "internalType": "bytes32",
          "name": "requestId",
          "type": "bytes32"
        }
      ],
      "stateMutability": "nonpayable",
      "type": "function"
    },
    {
      "inputs": [],
      "name": "data",
      "outputs": [
        {
          "internalType": "uint256",
          "name": "",
          "type": "uint256"
        }
      ],
      "stateMutability": "view",
      "type": "function"
    },
    {
      "inputs": [
        {
          "internalType": "bytes32",
          "name": "_requestId",
          "type": "bytes32"
        },
        {
          "internalType": "uint256",
          "name": "_data",
          "type": "uint256"
        }
      ],
      "name": "fulfill",
      "outputs": [],
      "stateMutability": "nonpayable",
      "type": "function"
    },
    {
      "inputs": [],
      "name": "getChainlinkToken",
      "outputs": [
        {
          "internalType": "address",
          "name": "",
          "type": "address"
        }
      ],
      "stateMutability": "view",
      "type": "function"
    },
    {
      "inputs": [],
      "name": "owner",
      "outputs": [
        {
          "internalType": "address",
          "name": "",
          "type": "address"
        }
      ],
      "stateMutability": "view",
      "type": "function"
    },
    {
      "inputs": [],
      "name": "renounceOwnership",
      "outputs": [],
      "stateMutability": "nonpayable",
      "type": "function"
    },
    {
      "inputs": [
        {
          "internalType": "address",
          "name": "newOwner",
          "type": "address"
        }
      ],
      "name": "transferOwnership",
      "outputs": [],
      "stateMutability": "nonpayable",
      "type": "function"
    },
    {
      "inputs": [],
      "name": "withdrawLink",
      "outputs": [],
      "stateMutability": "nonpayable",
      "type": "function"
    }
  ],
  "bytecode": "0x608060405260016004553480156200001657600080fd5b50620000376200002b6200004d60201b60201c565b6200005560201b60201c565b620000476200011b60201b60201c565b62000298565b600033905090565b6000600660009054906101000a900473ffffffffffffffffffffffffffffffffffffffff16905081600660006101000a81548173ffffffffffffffffffffffffffffffffffffffff021916908373ffffffffffffffffffffffffffffffffffffffff1602179055508173ffffffffffffffffffffffffffffffffffffffff168173ffffffffffffffffffffffffffffffffffffffff167f8be0079c531659141344cd1fd0a4f28419497f9722a3daafe3b4186f6b6457e060405160405180910390a35050565b620001c173c89bd4e1632d3a43cb03aaad5262cbe4038bc57173ffffffffffffffffffffffffffffffffffffffff166338cc48316040518163ffffffff1660e01b815260040160206040518083038186803b1580156200017a57600080fd5b505afa1580156200018f573d6000803e3d6000fd5b505050506040513d601f19601f82011682018060405250810190620001b591906200021e565b620001c360201b60201c565b565b80600260006101000a81548173ffffffffffffffffffffffffffffffffffffffff021916908373ffffffffffffffffffffffffffffffffffffffff16021790555050565b60008151905062000218816200027e565b92915050565b6000602082840312156200023157600080fd5b6000620002418482850162000207565b91505092915050565b600062000257826200025e565b9050919050565b600073ffffffffffffffffffffffffffffffffffffffff82169050919050565b62000289816200024a565b81146200029557600080fd5b50565b61221280620002a86000396000f3fe608060405234801561001057600080fd5b50600436106100935760003560e01c806373d4a13a1161006657806373d4a13a1461010c5780638da5cb5b1461012a5780638dc654a214610148578063ec65d0f814610152578063f2fde38b1461016e57610093565b806310e31dcb14610098578063165d35e1146100c85780634357855e146100e6578063715018a614610102575b600080fd5b6100b260048036038101906100ad91906116b5565b61018a565b6040516100bf9190611ad2565b60405180910390f35b6100d061035f565b6040516100dd91906119cb565b60405180910390f35b61010060048036038101906100fb9190611616565b61036e565b005b61010a61047f565b005b610114610507565b6040516101219190611bd2565b60405180910390f35b61013261050d565b60405161013f91906119cb565b60405180910390f35b610150610537565b005b61016c60048036038101906101679190611652565b610716565b005b610188600480360381019061018391906115c4565b6107a4565b005b600061019461089c565b73ffffffffffffffffffffffffffffffffffffffff166101b261050d565b73ffffffffffffffffffffffffffffffffffffffff1614610208576040517f08c379a00000000000000000000000000000000000000000000000000000000081526004016101ff90611b92565b60405180910390fd5b600073f4316eb1584b3cf547e091acd7003c116e07577b905060007f32653337623833363266343734666365396464303139666131393561383632379050600067016345785d8a0000905060006102678330634357855e60e01b6108a4565b90506102b36040518060400160405280600381526020017f75726c000000000000000000000000000000000000000000000000000000000081525088836108d59092919063ffffffff16565b6102fd6040518060400160405280600481526020017f706174680000000000000000000000000000000000000000000000000000000081525087836108d59092919063ffffffff16565b6103486040518060400160405280600581526020017f74696d65730000000000000000000000000000000000000000000000000000008152506064836109089092919063ffffffff16565b61035384828461093b565b94505050505092915050565b600061036961095b565b905090565b816005600082815260200190815260200160002060009054906101000a900473ffffffffffffffffffffffffffffffffffffffff1673ffffffffffffffffffffffffffffffffffffffff163373ffffffffffffffffffffffffffffffffffffffff1614610410576040517f08c379a000000000000000000000000000000000000000000000000000000000815260040161040790611bb2565b60405180910390fd5b6005600082815260200190815260200160002060006101000a81549073ffffffffffffffffffffffffffffffffffffffff0219169055807f7cc135e0cebb02c3480ae5d74d377283180a2601f8f644edf7987b009316c63a60405160405180910390a281600781905550505050565b61048761089c565b73ffffffffffffffffffffffffffffffffffffffff166104a561050d565b73ffffffffffffffffffffffffffffffffffffffff16146104fb576040517f08c379a00000000000000000000000000000000000000000000000000000000081526004016104f290611b92565b60405180910390fd5b6105056000610985565b565b60075481565b6000600660009054906101000a900473ffffffffffffffffffffffffffffffffffffffff16905090565b61053f61089c565b73ffffffffffffffffffffffffffffffffffffffff1661055d61050d565b73ffffffffffffffffffffffffffffffffffffffff16146105b3576040517f08c379a00000000000000000000000000000000000000000000000000000000081526004016105aa90611b92565b60405180910390fd5b60006105bd61095b565b90508073ffffffffffffffffffffffffffffffffffffffff1663a9059cbb338373ffffffffffffffffffffffffffffffffffffffff166370a08231306040518263ffffffff1660e01b815260040161061591906119cb565b60206040518083038186803b15801561062d57600080fd5b505afa158015610641573d6000803e3d6000fd5b505050506040513d601f19601f820116820180604052508101906106659190611721565b6040518363ffffffff1660e01b81526004016106829291906119e6565b602060405180830381600087803b15801561069c57600080fd5b505af11580156106b0573d6000803e3d6000fd5b505050506040513d601f19601f820116820180604052508101906106d491906115ed565b610713576040517f08c379a000000000000000000000000000000000000000000000000000000000815260040161070a90611b72565b60405180910390fd5b50565b61071e61089c565b73ffffffffffffffffffffffffffffffffffffffff1661073c61050d565b73ffffffffffffffffffffffffffffffffffffffff1614610792576040517f08c379a000000000000000000000000000000000000000000000000000000000815260040161078990611b92565b60405180910390fd5b61079e84848484610a4b565b50505050565b6107ac61089c565b73ffffffffffffffffffffffffffffffffffffffff166107ca61050d565b73ffffffffffffffffffffffffffffffffffffffff1614610820576040517f08c379a000000000000000000000000000000000000000000000000000000000815260040161081790611b92565b60405180910390fd5b600073ffffffffffffffffffffffffffffffffffffffff168173ffffffffffffffffffffffffffffffffffffffff161415610890576040517f08c379a000000000000000000000000000000000000000000000000000000000815260040161088790611b32565b60405180910390fd5b61089981610985565b50565b600033905090565b6108ac611457565b6108b4611457565b6108cb85858584610b5e909392919063ffffffff16565b9150509392505050565b6108ec828460800151610c0e90919063ffffffff16565b610903818460800151610c0e90919063ffffffff16565b505050565b61091f828460800151610c0e90919063ffffffff16565b610936818460800151610c3390919063ffffffff16565b505050565b60006109528484846001634042994660e01b610ce0565b90509392505050565b6000600260009054906101000a900473ffffffffffffffffffffffffffffffffffffffff16905090565b6000600660009054906101000a900473ffffffffffffffffffffffffffffffffffffffff16905081600660006101000a81548173ffffffffffffffffffffffffffffffffffffffff021916908373ffffffffffffffffffffffffffffffffffffffff1602179055508173ffffffffffffffffffffffffffffffffffffffff168173ffffffffffffffffffffffffffffffffffffffff167f8be0079c531659141344cd1fd0a4f28419497f9722a3daafe3b4186f6b6457e060405160405180910390a35050565b60006005600086815260200190815260200160002060009054906101000a900473ffffffffffffffffffffffffffffffffffffffff1690506005600086815260200190815260200160002060006101000a81549073ffffffffffffffffffffffffffffffffffffffff0219169055847fe1fe3afa0f7f761ff0a8b89086790efd5140d2907ebd5b7ff6bfcb5e075fd4c560405160405180910390a28073ffffffffffffffffffffffffffffffffffffffff16636ee4d553868686866040518563ffffffff1660e01b8152600401610b259493929190611aed565b600060405180830381600087803b158015610b3f57600080fd5b505af1158015610b53573d6000803e3d6000fd5b505050505050505050565b610b66611457565b610b768560800151610100610f48565b508385600001818152505082856020019073ffffffffffffffffffffffffffffffffffffffff16908173ffffffffffffffffffffffffffffffffffffffff16815250508185604001907bffffffffffffffffffffffffffffffffffffffffffffffffffffffff191690817bffffffffffffffffffffffffffffffffffffffffffffffffffffffff191681525050849050949350505050565b610c1b8260038351610fb2565b610c2e81836110f790919063ffffffff16565b505050565b7fffffffffffffffffffffffffffffffffffffffffffffffff0000000000000000811215610c6a57610c658282611119565b610cdc565b67ffffffffffffffff811315610c8957610c848282611190565b610cdb565b60008112610ca257610c9d82600083610fb2565b610cda565b610cd9826001837fffffffffffffffffffffffffffffffffffffffffffffffffffffffffffffffff610cd49190611e9c565b610fb2565b5b5b5b5050565b600030600454604051602001610cf792919061199f565b604051602081830303815290604052805190602001209050600454856060018181525050856005600083815260200190815260200160002060006101000a81548173ffffffffffffffffffffffffffffffffffffffff021916908373ffffffffffffffffffffffffffffffffffffffff160217905550807fb5e6e01e79f91267dc17b4e6314d5d4d03593d2ceee0fbb452b750bd70ea5af960405160405180910390a2600082600080886000015189602001518a604001518b606001518a8d6080015160000151604051602401610dd5989796959493929190611a0f565b604051602081830303815290604052907bffffffffffffffffffffffffffffffffffffffffffffffffffffffff19166020820180517bffffffffffffffffffffffffffffffffffffffffffffffffffffffff83818316178352505050509050600260009054906101000a900473ffffffffffffffffffffffffffffffffffffffff1673ffffffffffffffffffffffffffffffffffffffff16634000aea08887846040518463ffffffff1660e01b8152600401610e9393929190611a94565b602060405180830381600087803b158015610ead57600080fd5b505af1158015610ec1573d6000803e3d6000fd5b505050506040513d601f19601f82011682018060405250810190610ee591906115ed565b610f24576040517f08c379a0000000000000000000000000000000000000000000000000000000008152600401610f1b90611b52565b60405180910390fd5b600160046000828254610f379190611c7b565b925050819055505095945050505050565b610f506114c4565b6000602083610f5f9190612080565b14610f8b57602082610f719190612080565b6020610f7d9190611f30565b82610f889190611c7b565b91505b81836020018181525050604051808452600081528281016020016040525082905092915050565b60178111610fdf57610fd98160058460ff16901b60ff1617846111dc90919063ffffffff16565b506110f2565b60ff811161102157611004601860058460ff16901b17846111dc90919063ffffffff16565b5061101b816001856111fc9092919063ffffffff16565b506110f1565b61ffff811161106457611047601960058460ff16901b17846111dc90919063ffffffff16565b5061105e816002856111fc9092919063ffffffff16565b506110f0565b63ffffffff81116110a95761108c601a60058460ff16901b17846111dc90919063ffffffff16565b506110a3816004856111fc9092919063ffffffff16565b506110ef565b67ffffffffffffffff81116110ee576110d5601b60058460ff16901b17846111dc90919063ffffffff16565b506110ec816008856111fc9092919063ffffffff16565b505b5b5b5b5b505050565b6110ff6114c4565b6111118384600001515184855161121e565b905092915050565b61113760036005600660ff16901b17836111dc90919063ffffffff16565b5061118c82827fffffffffffffffffffffffffffffffffffffffffffffffffffffffffffffffff6111689190611e9c565b6040516020016111789190611bd2565b60405160208183030381529060405261130d565b5050565b6111ae60026005600660ff16901b17836111dc90919063ffffffff16565b506111d882826040516020016111c49190611bd2565b60405160208183030381529060405261130d565b5050565b6111e46114c4565b6111f48384600001515184611332565b905092915050565b6112046114c4565b611215848560000151518585611389565b90509392505050565b6112266114c4565b825182111561123457600080fd5b846020015182856112459190611c7b565b111561127a5761127985600261126a886020015188876112659190611c7b565b611417565b6112749190611e42565b611433565b5b6000808651805187602083010193508088870111156112995787860182525b60208701925050505b602084106112e057805182526020826112bb9190611c7b565b91506020816112ca9190611c7b565b90506020846112d99190611f30565b93506112a2565b60006001856020036101000a03905080198251168184511681811785525050508692505050949350505050565b61131a8260028351610fb2565b61132d81836110f790919063ffffffff16565b505050565b61133a6114c4565b836020015183106113605761135f846002866020015161135a9190611e42565b611433565b5b835180516020858301018481538186141561137c576001820183525b5050508390509392505050565b6113916114c4565b846020015184836113a29190611c7b565b11156113ca576113c985600286856113ba9190611c7b565b6113c49190611e42565b611433565b5b60006001836101006113dc9190611d24565b6113e69190611f30565b905085518386820101858319825116178152815185880111156114095784870182525b505085915050949350505050565b6000818311156114295782905061142d565b8190505b92915050565b6000826000015190506114468383610f48565b5061145183826110f7565b50505050565b6040518060a0016040528060008019168152602001600073ffffffffffffffffffffffffffffffffffffffff16815260200160007bffffffffffffffffffffffffffffffffffffffffffffffffffffffff19168152602001600081526020016114be6114c4565b81525090565b604051806040016040528060608152602001600081525090565b60006114f16114ec84611c1e565b611bed565b90508281526020810184848401111561150957600080fd5b611514848285612010565b509392505050565b60008135905061152b81612169565b92915050565b60008151905061154081612180565b92915050565b60008135905061155581612197565b92915050565b60008135905061156a816121ae565b92915050565b600082601f83011261158157600080fd5b81356115918482602086016114de565b91505092915050565b6000813590506115a9816121c5565b92915050565b6000815190506115be816121c5565b92915050565b6000602082840312156115d657600080fd5b60006115e48482850161151c565b91505092915050565b6000602082840312156115ff57600080fd5b600061160d84828501611531565b91505092915050565b6000806040838503121561162957600080fd5b600061163785828601611546565b92505060206116488582860161159a565b9150509250929050565b6000806000806080858703121561166857600080fd5b600061167687828801611546565b94505060206116878782880161159a565b93505060406116988782880161155b565b92505060606116a98782880161159a565b91505092959194509250565b600080604083850312156116c857600080fd5b600083013567ffffffffffffffff8111156116e257600080fd5b6116ee85828601611570565b925050602083013567ffffffffffffffff81111561170b57600080fd5b61171785828601611570565b9150509250929050565b60006020828403121561173357600080fd5b6000611741848285016115af565b91505092915050565b61175381611f64565b82525050565b61176281611f82565b82525050565b61177181611f8c565b82525050565b600061178282611c4e565b61178c8185611c59565b935061179c81856020860161201f565b6117a58161213e565b840191505092915050565b6117c16117bc82611fec565b612052565b82525050565b60006117d4602683611c6a565b91507f4f776e61626c653a206e6577206f776e657220697320746865207a65726f206160008301527f64647265737300000000000000000000000000000000000000000000000000006020830152604082019050919050565b600061183a602383611c6a565b91507f756e61626c6520746f207472616e73666572416e6443616c6c20746f206f726160008301527f636c6500000000000000000000000000000000000000000000000000000000006020830152604082019050919050565b60006118a0601283611c6a565b91507f556e61626c6520746f207472616e7366657200000000000000000000000000006000830152602082019050919050565b60006118e0602083611c6a565b91507f4f776e61626c653a2063616c6c6572206973206e6f7420746865206f776e65726000830152602082019050919050565b6000611920602883611c6a565b91507f536f75726365206d75737420626520746865206f7261636c65206f662074686560008301527f20726571756573740000000000000000000000000000000000000000000000006020830152604082019050919050565b61198281611fe2565b82525050565b61199961199482611fe2565b612076565b82525050565b60006119ab82856117b0565b6014820191506119bb8284611988565b6020820191508190509392505050565b60006020820190506119e0600083018461174a565b92915050565b60006040820190506119fb600083018561174a565b611a086020830184611979565b9392505050565b600061010082019050611a25600083018b61174a565b611a32602083018a611979565b611a3f6040830189611759565b611a4c606083018861174a565b611a596080830187611768565b611a6660a0830186611979565b611a7360c0830185611979565b81810360e0830152611a858184611777565b90509998505050505050505050565b6000606082019050611aa9600083018661174a565b611ab66020830185611979565b8181036040830152611ac88184611777565b9050949350505050565b6000602082019050611ae76000830184611759565b92915050565b6000608082019050611b026000830187611759565b611b0f6020830186611979565b611b1c6040830185611768565b611b296060830184611979565b95945050505050565b60006020820190508181036000830152611b4b816117c7565b9050919050565b60006020820190508181036000830152611b6b8161182d565b9050919050565b60006020820190508181036000830152611b8b81611893565b9050919050565b60006020820190508181036000830152611bab816118d3565b9050919050565b60006020820190508181036000830152611bcb81611913565b9050919050565b6000602082019050611be76000830184611979565b92915050565b6000604051905081810181811067ffffffffffffffff82111715611c1457611c1361210f565b5b8060405250919050565b600067ffffffffffffffff821115611c3957611c3861210f565b5b601f19601f8301169050602081019050919050565b600081519050919050565b600082825260208201905092915050565b600082825260208201905092915050565b6000611c8682611fe2565b9150611c9183611fe2565b9250827fffffffffffffffffffffffffffffffffffffffffffffffffffffffffffffffff03821115611cc657611cc56120b1565b5b828201905092915050565b6000808291508390505b6001851115611d1b57808604811115611cf757611cf66120b1565b5b6001851615611d065780820291505b8081029050611d148561215c565b9450611cdb565b94509492505050565b6000611d2f82611fe2565b9150611d3a83611fe2565b9250611d677fffffffffffffffffffffffffffffffffffffffffffffffffffffffffffffffff8484611d6f565b905092915050565b600082611d7f5760019050611e3b565b81611d8d5760009050611e3b565b8160018114611da35760028114611dad57611ddc565b6001915050611e3b565b60ff841115611dbf57611dbe6120b1565b5b8360020a915084821115611dd657611dd56120b1565b5b50611e3b565b5060208310610133831016604e8410600b8410161715611e115782820a905083811115611e0c57611e0b6120b1565b5b611e3b565b611e1e8484846001611cd1565b92509050818404811115611e3557611e346120b1565b5b81810290505b9392505050565b6000611e4d82611fe2565b9150611e5883611fe2565b9250817fffffffffffffffffffffffffffffffffffffffffffffffffffffffffffffffff0483118215151615611e9157611e906120b1565b5b828202905092915050565b6000611ea782611fb8565b9150611eb283611fb8565b9250827f800000000000000000000000000000000000000000000000000000000000000001821260008412151615611eed57611eec6120b1565b5b827f7fffffffffffffffffffffffffffffffffffffffffffffffffffffffffffffff018213600084121615611f2557611f246120b1565b5b828203905092915050565b6000611f3b82611fe2565b9150611f4683611fe2565b925082821015611f5957611f586120b1565b5b828203905092915050565b6000611f6f82611fc2565b9050919050565b60008115159050919050565b6000819050919050565b60007fffffffff0000000000000000000000000000000000000000000000000000000082169050919050565b6000819050919050565b600073ffffffffffffffffffffffffffffffffffffffff82169050919050565b6000819050919050565b6000611ff782611ffe565b9050919050565b600061200982611fc2565b9050919050565b82818337600083830152505050565b60005b8381101561203d578082015181840152602081019050612022565b8381111561204c576000848401525b50505050565b600061205d82612064565b9050919050565b600061206f8261214f565b9050919050565b6000819050919050565b600061208b82611fe2565b915061209683611fe2565b9250826120a6576120a56120e0565b5b828206905092915050565b7f4e487b7100000000000000000000000000000000000000000000000000000000600052601160045260246000fd5b7f4e487b7100000000000000000000000000000000000000000000000000000000600052601260045260246000fd5b7f4e487b7100000000000000000000000000000000000000000000000000000000600052604160045260246000fd5b6000601f19601f8301169050919050565b60008160601b9050919050565b60008160011c9050919050565b61217281611f64565b811461217d57600080fd5b50565b61218981611f76565b811461219457600080fd5b50565b6121a081611f82565b81146121ab57600080fd5b50565b6121b781611f8c565b81146121c257600080fd5b50565b6121ce81611fe2565b81146121d957600080fd5b5056fea26469706673582212200b45e99963e8f084c6b127d7c1834b4b42c8e32b27b45f27ecad8ab9a666b9c364736f6c63430008000033",
  "linkReferences": {},
  "deployedLinkReferences": {}
}