{
  "_format": "hh-sol-artifact-1",
  "contractName": "Item",
  "sourceName": "contracts/Item.sol",
  "abi": [
    {
      "inputs": [
        {
          "internalType": "string",
          "name": "name",
          "type": "string"
        },
        {
          "internalType": "string",
          "name": "symbol",
          "type": "string"
        },
        {
          "internalType": "uint256",
          "name": "_amount",
          "type": "uint256"
        },
        {
          "internalType": "uint256",
          "name": "_price",
          "type": "uint256"
        }
      ],
      "stateMutability": "nonpayable",
      "type": "constructor"
    },
    {
      "anonymous": false,
      "inputs": [
        {
          "indexed": true,
          "internalType": "address",
          "name": "owner",
          "type": "address"
        },
        {
          "indexed": true,
          "internalType": "address",
          "name": "spender",
          "type": "address"
        },
        {
          "indexed": false,
          "internalType": "uint256",
          "name": "value",
          "type": "uint256"
        }
      ],
      "name": "Approval",
      "type": "event"
    },
    {
      "anonymous": false,
      "inputs": [
        {
          "indexed": true,
          "internalType": "address",
          "name": "from",
          "type": "address"
        },
        {
          "indexed": true,
          "internalType": "address",
          "name": "to",
          "type": "address"
        },
        {
          "indexed": false,
          "internalType": "uint256",
          "name": "value",
          "type": "uint256"
        }
      ],
      "name": "Transfer",
      "type": "event"
    },
    {
      "inputs": [
        {
          "internalType": "uint256",
          "name": "_amount",
          "type": "uint256"
        }
      ],
      "name": "addItem",
      "outputs": [
        {
          "internalType": "bool",
          "name": "",
          "type": "bool"
        }
      ],
      "stateMutability": "nonpayable",
      "type": "function"
    },
    {
      "inputs": [
        {
          "internalType": "address",
          "name": "owner",
          "type": "address"
        },
        {
          "internalType": "address",
          "name": "spender",
          "type": "address"
        }
      ],
      "name": "allowance",
      "outputs": [
        {
          "internalType": "uint256",
          "name": "",
          "type": "uint256"
        }
      ],
      "stateMutability": "view",
      "type": "function"
    },
    {
      "inputs": [
        {
          "internalType": "address",
          "name": "spender",
          "type": "address"
        },
        {
          "internalType": "uint256",
          "name": "amount",
          "type": "uint256"
        }
      ],
      "name": "approve",
      "outputs": [
        {
          "internalType": "bool",
          "name": "",
          "type": "bool"
        }
      ],
      "stateMutability": "nonpayable",
      "type": "function"
    },
    {
      "inputs": [
        {
          "internalType": "address",
          "name": "account",
          "type": "address"
        }
      ],
      "name": "balanceOf",
      "outputs": [
        {
          "internalType": "uint256",
          "name": "",
          "type": "uint256"
        }
      ],
      "stateMutability": "view",
      "type": "function"
    },
    {
      "inputs": [],
      "name": "decimals",
      "outputs": [
        {
          "internalType": "uint8",
          "name": "",
          "type": "uint8"
        }
      ],
      "stateMutability": "view",
      "type": "function"
    },
    {
      "inputs": [
        {
          "internalType": "address",
          "name": "spender",
          "type": "address"
        },
        {
          "internalType": "uint256",
          "name": "subtractedValue",
          "type": "uint256"
        }
      ],
      "name": "decreaseAllowance",
      "outputs": [
        {
          "internalType": "bool",
          "name": "",
          "type": "bool"
        }
      ],
      "stateMutability": "nonpayable",
      "type": "function"
    },
    {
      "inputs": [],
      "name": "getPrice",
      "outputs": [
        {
          "internalType": "uint256",
          "name": "",
          "type": "uint256"
        }
      ],
      "stateMutability": "view",
      "type": "function"
    },
    {
      "inputs": [
        {
          "internalType": "address",
          "name": "spender",
          "type": "address"
        },
        {
          "internalType": "uint256",
          "name": "addedValue",
          "type": "uint256"
        }
      ],
      "name": "increaseAllowance",
      "outputs": [
        {
          "internalType": "bool",
          "name": "",
          "type": "bool"
        }
      ],
      "stateMutability": "nonpayable",
      "type": "function"
    },
    {
      "inputs": [],
      "name": "name",
      "outputs": [
        {
          "internalType": "string",
          "name": "",
          "type": "string"
        }
      ],
      "stateMutability": "view",
      "type": "function"
    },
    {
      "inputs": [],
      "name": "symbol",
      "outputs": [
        {
          "internalType": "string",
          "name": "",
          "type": "string"
        }
      ],
      "stateMutability": "view",
      "type": "function"
    },
    {
      "inputs": [],
      "name": "totalSupply",
      "outputs": [
        {
          "internalType": "uint256",
          "name": "",
          "type": "uint256"
        }
      ],
      "stateMutability": "view",
      "type": "function"
    },
    {
      "inputs": [
        {
          "internalType": "address",
          "name": "recipient",
          "type": "address"
        },
        {
          "internalType": "uint256",
          "name": "amount",
          "type": "uint256"
        }
      ],
      "name": "transfer",
      "outputs": [
        {
          "internalType": "bool",
          "name": "",
          "type": "bool"
        }
      ],
      "stateMutability": "nonpayable",
      "type": "function"
    },
    {
      "inputs": [
        {
          "internalType": "address",
          "name": "sender",
          "type": "address"
        },
        {
          "internalType": "address",
          "name": "recipient",
          "type": "address"
        },
        {
          "internalType": "uint256",
          "name": "amount",
          "type": "uint256"
        }
      ],
      "name": "transferFrom",
      "outputs": [
        {
          "internalType": "bool",
          "name": "",
          "type": "bool"
        }
      ],
      "stateMutability": "nonpayable",
      "type": "function"
    }
  ],
  "bytecode": "0x60806040523480156200001157600080fd5b5060405162001cd638038062001cd683398181016040528101906200003791906200038d565b838381600390805190602001906200005192919062000254565b5080600490805190602001906200006a92919062000254565b50505033600660006101000a81548173ffffffffffffffffffffffffffffffffffffffff021916908373ffffffffffffffffffffffffffffffffffffffff16021790555080600581905550620000c73383620000d160201b60201c565b50505050620006af565b600073ffffffffffffffffffffffffffffffffffffffff168273ffffffffffffffffffffffffffffffffffffffff16141562000144576040517f08c379a00000000000000000000000000000000000000000000000000000000081526004016200013b906200047e565b60405180910390fd5b62000158600083836200024a60201b60201c565b80600260008282546200016c919062000535565b92505081905550806000808473ffffffffffffffffffffffffffffffffffffffff1673ffffffffffffffffffffffffffffffffffffffff1681526020019081526020016000206000828254620001c3919062000535565b925050819055508173ffffffffffffffffffffffffffffffffffffffff16600073ffffffffffffffffffffffffffffffffffffffff167fddf252ad1be2c89b69c2b068fc378daa952ba7f163c4a11628f55a4df523b3ef836040516200022a9190620004a0565b60405180910390a362000246600083836200024f60201b60201c565b5050565b505050565b505050565b8280546200026290620005d2565b90600052602060002090601f016020900481019282620002865760008555620002d2565b82601f10620002a157805160ff1916838001178555620002d2565b82800160010185558215620002d2579182015b82811115620002d1578251825591602001919060010190620002b4565b5b509050620002e19190620002e5565b5090565b5b8082111562000300576000816000905550600101620002e6565b5090565b60006200031b6200031584620004f1565b620004bd565b9050828152602081018484840111156200033457600080fd5b620003418482856200059c565b509392505050565b600082601f8301126200035b57600080fd5b81516200036d84826020860162000304565b91505092915050565b600081519050620003878162000695565b92915050565b60008060008060808587031215620003a457600080fd5b600085015167ffffffffffffffff811115620003bf57600080fd5b620003cd8782880162000349565b945050602085015167ffffffffffffffff811115620003eb57600080fd5b620003f98782880162000349565b93505060406200040c8782880162000376565b92505060606200041f8782880162000376565b91505092959194509250565b60006200043a601f8362000524565b91507f45524332303a206d696e7420746f20746865207a65726f2061646472657373006000830152602082019050919050565b620004788162000592565b82525050565b6000602082019050818103600083015262000499816200042b565b9050919050565b6000602082019050620004b760008301846200046d565b92915050565b6000604051905081810181811067ffffffffffffffff82111715620004e757620004e662000666565b5b8060405250919050565b600067ffffffffffffffff8211156200050f576200050e62000666565b5b601f19601f8301169050602081019050919050565b600082825260208201905092915050565b6000620005428262000592565b91506200054f8362000592565b9250827fffffffffffffffffffffffffffffffffffffffffffffffffffffffffffffffff0382111562000587576200058662000608565b5b828201905092915050565b6000819050919050565b60005b83811015620005bc5780820151818401526020810190506200059f565b83811115620005cc576000848401525b50505050565b60006002820490506001821680620005eb57607f821691505b6020821081141562000602576200060162000637565b5b50919050565b7f4e487b7100000000000000000000000000000000000000000000000000000000600052601160045260246000fd5b7f4e487b7100000000000000000000000000000000000000000000000000000000600052602260045260246000fd5b7f4e487b7100000000000000000000000000000000000000000000000000000000600052604160045260246000fd5b620006a08162000592565b8114620006ac57600080fd5b50565b61161780620006bf6000396000f3fe608060405234801561001057600080fd5b50600436106100cf5760003560e01c806370a082311161008c578063a457c2d711610066578063a457c2d71461022a578063a9059cbb1461025a578063be6340451461028a578063dd62ed3e146102ba576100cf565b806370a08231146101be57806395d89b41146101ee57806398d5fdca1461020c576100cf565b806306fdde03146100d4578063095ea7b3146100f257806318160ddd1461012257806323b872dd14610140578063313ce56714610170578063395093511461018e575b600080fd5b6100dc6102ea565b6040516100e991906112c0565b60405180910390f35b61010c60048036038101906101079190610ed0565b61037c565b60405161011991906112a5565b60405180910390f35b61012a61039a565b60405161013791906113e2565b60405180910390f35b61015a60048036038101906101559190610e81565b6103a4565b60405161016791906112a5565b60405180910390f35b61017861049c565b60405161018591906113fd565b60405180910390f35b6101a860048036038101906101a39190610ed0565b6104a5565b6040516101b591906112a5565b60405180910390f35b6101d860048036038101906101d39190610e1c565b610551565b6040516101e591906113e2565b60405180910390f35b6101f6610599565b60405161020391906112c0565b60405180910390f35b61021461062b565b60405161022191906113e2565b60405180910390f35b610244600480360381019061023f9190610ed0565b610635565b60405161025191906112a5565b60405180910390f35b610274600480360381019061026f9190610ed0565b610720565b60405161028191906112a5565b60405180910390f35b6102a4600480360381019061029f9190610f0c565b61073e565b6040516102b191906112a5565b60405180910390f35b6102d460048036038101906102cf9190610e45565b6107ad565b6040516102e191906113e2565b60405180910390f35b6060600380546102f990611512565b80601f016020809104026020016040519081016040528092919081815260200182805461032590611512565b80156103725780601f1061034757610100808354040283529160200191610372565b820191906000526020600020905b81548152906001019060200180831161035557829003601f168201915b5050505050905090565b6000610390610389610834565b848461083c565b6001905092915050565b6000600254905090565b60006103b1848484610a07565b6000600160008673ffffffffffffffffffffffffffffffffffffffff1673ffffffffffffffffffffffffffffffffffffffff16815260200190815260200160002060006103fc610834565b73ffffffffffffffffffffffffffffffffffffffff1673ffffffffffffffffffffffffffffffffffffffff1681526020019081526020016000205490508281101561047c576040517f08c379a000000000000000000000000000000000000000000000000000000000815260040161047390611342565b60405180910390fd5b61049085610488610834565b85840361083c565b60019150509392505050565b60006012905090565b60006105476104b2610834565b8484600160006104c0610834565b73ffffffffffffffffffffffffffffffffffffffff1673ffffffffffffffffffffffffffffffffffffffff16815260200190815260200160002060008873ffffffffffffffffffffffffffffffffffffffff1673ffffffffffffffffffffffffffffffffffffffff168152602001908152602001600020546105429190611434565b61083c565b6001905092915050565b60008060008373ffffffffffffffffffffffffffffffffffffffff1673ffffffffffffffffffffffffffffffffffffffff168152602001908152602001600020549050919050565b6060600480546105a890611512565b80601f01602080910402602001604051908101604052809291908181526020018280546105d490611512565b80156106215780601f106105f657610100808354040283529160200191610621565b820191906000526020600020905b81548152906001019060200180831161060457829003601f168201915b5050505050905090565b6000600554905090565b60008060016000610644610834565b73ffffffffffffffffffffffffffffffffffffffff1673ffffffffffffffffffffffffffffffffffffffff16815260200190815260200160002060008573ffffffffffffffffffffffffffffffffffffffff1673ffffffffffffffffffffffffffffffffffffffff16815260200190815260200160002054905082811015610701576040517f08c379a00000000000000000000000000000000000000000000000000000000081526004016106f8906113a2565b60405180910390fd5b61071561070c610834565b8585840361083c565b600191505092915050565b600061073461072d610834565b8484610a07565b6001905092915050565b6000600660009054906101000a900473ffffffffffffffffffffffffffffffffffffffff1673ffffffffffffffffffffffffffffffffffffffff163373ffffffffffffffffffffffffffffffffffffffff161461079a57600080fd5b6107a43383610c88565b60019050919050565b6000600160008473ffffffffffffffffffffffffffffffffffffffff1673ffffffffffffffffffffffffffffffffffffffff16815260200190815260200160002060008373ffffffffffffffffffffffffffffffffffffffff1673ffffffffffffffffffffffffffffffffffffffff16815260200190815260200160002054905092915050565b600033905090565b600073ffffffffffffffffffffffffffffffffffffffff168373ffffffffffffffffffffffffffffffffffffffff1614156108ac576040517f08c379a00000000000000000000000000000000000000000000000000000000081526004016108a390611382565b60405180910390fd5b600073ffffffffffffffffffffffffffffffffffffffff168273ffffffffffffffffffffffffffffffffffffffff16141561091c576040517f08c379a000000000000000000000000000000000000000000000000000000000815260040161091390611302565b60405180910390fd5b80600160008573ffffffffffffffffffffffffffffffffffffffff1673ffffffffffffffffffffffffffffffffffffffff16815260200190815260200160002060008473ffffffffffffffffffffffffffffffffffffffff1673ffffffffffffffffffffffffffffffffffffffff168152602001908152602001600020819055508173ffffffffffffffffffffffffffffffffffffffff168373ffffffffffffffffffffffffffffffffffffffff167f8c5be1e5ebec7d5bd14f71427d1e84f3dd0314c0f7b2291e5b200ac8c7c3b925836040516109fa91906113e2565b60405180910390a3505050565b600073ffffffffffffffffffffffffffffffffffffffff168373ffffffffffffffffffffffffffffffffffffffff161415610a77576040517f08c379a0000000000000000000000000000000000000000000000000000000008152600401610a6e90611362565b60405180910390fd5b600073ffffffffffffffffffffffffffffffffffffffff168273ffffffffffffffffffffffffffffffffffffffff161415610ae7576040517f08c379a0000000000000000000000000000000000000000000000000000000008152600401610ade906112e2565b60405180910390fd5b610af2838383610de8565b60008060008573ffffffffffffffffffffffffffffffffffffffff1673ffffffffffffffffffffffffffffffffffffffff16815260200190815260200160002054905081811015610b78576040517f08c379a0000000000000000000000000000000000000000000000000000000008152600401610b6f90611322565b60405180910390fd5b8181036000808673ffffffffffffffffffffffffffffffffffffffff1673ffffffffffffffffffffffffffffffffffffffff16815260200190815260200160002081905550816000808573ffffffffffffffffffffffffffffffffffffffff1673ffffffffffffffffffffffffffffffffffffffff1681526020019081526020016000206000828254610c0b9190611434565b925050819055508273ffffffffffffffffffffffffffffffffffffffff168473ffffffffffffffffffffffffffffffffffffffff167fddf252ad1be2c89b69c2b068fc378daa952ba7f163c4a11628f55a4df523b3ef84604051610c6f91906113e2565b60405180910390a3610c82848484610ded565b50505050565b600073ffffffffffffffffffffffffffffffffffffffff168273ffffffffffffffffffffffffffffffffffffffff161415610cf8576040517f08c379a0000000000000000000000000000000000000000000000000000000008152600401610cef906113c2565b60405180910390fd5b610d0460008383610de8565b8060026000828254610d169190611434565b92505081905550806000808473ffffffffffffffffffffffffffffffffffffffff1673ffffffffffffffffffffffffffffffffffffffff1681526020019081526020016000206000828254610d6b9190611434565b925050819055508173ffffffffffffffffffffffffffffffffffffffff16600073ffffffffffffffffffffffffffffffffffffffff167fddf252ad1be2c89b69c2b068fc378daa952ba7f163c4a11628f55a4df523b3ef83604051610dd091906113e2565b60405180910390a3610de460008383610ded565b5050565b505050565b505050565b600081359050610e01816115b3565b92915050565b600081359050610e16816115ca565b92915050565b600060208284031215610e2e57600080fd5b6000610e3c84828501610df2565b91505092915050565b60008060408385031215610e5857600080fd5b6000610e6685828601610df2565b9250506020610e7785828601610df2565b9150509250929050565b600080600060608486031215610e9657600080fd5b6000610ea486828701610df2565b9350506020610eb586828701610df2565b9250506040610ec686828701610e07565b9150509250925092565b60008060408385031215610ee357600080fd5b6000610ef185828601610df2565b9250506020610f0285828601610e07565b9150509250929050565b600060208284031215610f1e57600080fd5b6000610f2c84828501610e07565b91505092915050565b610f3e8161149c565b82525050565b6000610f4f82611418565b610f598185611423565b9350610f698185602086016114df565b610f72816115a2565b840191505092915050565b6000610f8a602383611423565b91507f45524332303a207472616e7366657220746f20746865207a65726f206164647260008301527f65737300000000000000000000000000000000000000000000000000000000006020830152604082019050919050565b6000610ff0602283611423565b91507f45524332303a20617070726f766520746f20746865207a65726f20616464726560008301527f73730000000000000000000000000000000000000000000000000000000000006020830152604082019050919050565b6000611056602683611423565b91507f45524332303a207472616e7366657220616d6f756e742065786365656473206260008301527f616c616e636500000000000000000000000000000000000000000000000000006020830152604082019050919050565b60006110bc602883611423565b91507f45524332303a207472616e7366657220616d6f756e742065786365656473206160008301527f6c6c6f77616e63650000000000000000000000000000000000000000000000006020830152604082019050919050565b6000611122602583611423565b91507f45524332303a207472616e736665722066726f6d20746865207a65726f20616460008301527f64726573730000000000000000000000000000000000000000000000000000006020830152604082019050919050565b6000611188602483611423565b91507f45524332303a20617070726f76652066726f6d20746865207a65726f2061646460008301527f72657373000000000000000000000000000000000000000000000000000000006020830152604082019050919050565b60006111ee602583611423565b91507f45524332303a2064656372656173656420616c6c6f77616e63652062656c6f7760008301527f207a65726f0000000000000000000000000000000000000000000000000000006020830152604082019050919050565b6000611254601f83611423565b91507f45524332303a206d696e7420746f20746865207a65726f2061646472657373006000830152602082019050919050565b611290816114c8565b82525050565b61129f816114d2565b82525050565b60006020820190506112ba6000830184610f35565b92915050565b600060208201905081810360008301526112da8184610f44565b905092915050565b600060208201905081810360008301526112fb81610f7d565b9050919050565b6000602082019050818103600083015261131b81610fe3565b9050919050565b6000602082019050818103600083015261133b81611049565b9050919050565b6000602082019050818103600083015261135b816110af565b9050919050565b6000602082019050818103600083015261137b81611115565b9050919050565b6000602082019050818103600083015261139b8161117b565b9050919050565b600060208201905081810360008301526113bb816111e1565b9050919050565b600060208201905081810360008301526113db81611247565b9050919050565b60006020820190506113f76000830184611287565b92915050565b60006020820190506114126000830184611296565b92915050565b600081519050919050565b600082825260208201905092915050565b600061143f826114c8565b915061144a836114c8565b9250827fffffffffffffffffffffffffffffffffffffffffffffffffffffffffffffffff0382111561147f5761147e611544565b5b828201905092915050565b6000611495826114a8565b9050919050565b60008115159050919050565b600073ffffffffffffffffffffffffffffffffffffffff82169050919050565b6000819050919050565b600060ff82169050919050565b60005b838110156114fd5780820151818401526020810190506114e2565b8381111561150c576000848401525b50505050565b6000600282049050600182168061152a57607f821691505b6020821081141561153e5761153d611573565b5b50919050565b7f4e487b7100000000000000000000000000000000000000000000000000000000600052601160045260246000fd5b7f4e487b7100000000000000000000000000000000000000000000000000000000600052602260045260246000fd5b6000601f19601f8301169050919050565b6115bc8161148a565b81146115c757600080fd5b50565b6115d3816114c8565b81146115de57600080fd5b5056fea26469706673582212207270a0ee3478315dfd7556da7ba61973129191e980f573c4a125ab7157660e6c64736f6c63430008000033",
  "linkReferences": {},
  "deployedLinkReferences": {}
}